:100000000C94BB020C94E3020C94E3020C94E30204
:100010000C94E3020C94E3020C94E3020C94E302CC
:100020000C94E3020C94E3020C94E3020C94E302BC
:100030000C94E3020C94E3020C94E3020C94E302AC
:100040000C94DE0B0C94E3020C944E0C0C94280CD4
:100050000C94E3020C94E3020C94E3020C94E3028C
:100060000C94E3020C94E3024641494C004F4B00D0
:1000700052656769737465722064756D7020617470
:1000800020656E64206F6620736574757000526120
:1000900064696F206D6F64652073657420746F20D0
:1000A0004F4646004368616E6E656C204D6F646517
:1000B0002069733A200043544353532F434443531E
:1000C0005320646576696174696F6E2069733A20A4
:1000D0000043544353532F43444353532B6175649C
:1000E000696F20646576696174696F6E2069733A1F
:1000F000200053657474696E672064656661756C71
:1001000074204B344838313820636F6E66696775E8
:10011000726174696F6E00496E697469616C697AA5
:10012000696E6720746865204B34483831382E2E4C
:100130002E00526164696F20636F6E6E656374692F
:100140006F6E206661696C656400526164696F203E
:10015000636F6E6E656374696F6E2073756363653C
:10016000737366756C0054657374696E672064659B
:100170007669636520636F6E6E656374696F6E7315
:100180002E2E2E00426567696E6E696E6720726161
:1001900064696F207365747570004B34483831386A
:1001A00052454144590052535349206C6F77207097
:1001B0006173732066696C746572206E6F726D6115
:1001C0006C2E0052535349206C6F7720706173730B
:1001D0002066696C746572206279706173736564FE
:1001E0002E0043544353532048696768205061737D
:1001F000732046696C74657220656E61626C65641B
:100200000043544353532048696768205061737317
:100210002046696C7465722064697361626C656400
:10022000004354435353204C6F7720506173732025
:1002300046696C74657220656E61626C656400432A
:1002400054435353204C6F77205061737320466999
:100250006C7465722064697361626C656400566FCA
:10026000696365204C6F7720506173732046696C19
:1002700074657220656E61626C656400566F6963B7
:1002800065204C6F7720506173732046696C7465EC
:10029000722064697361626C656400566F6963659E
:1002A000204869676820506173732046696C7465E3
:1002B0007220656E61626C656400566F69636520CB
:1002C0004869676820506173732046696C74657271
:1002D0002064697361626C6564005072652F4465C7
:1002E0002D656D70686173697320656E61626C6500
:1002F00064005072652F44652D656D706861736987
:10030000732064697361626C65640046696C74652E
:100310007220726567697374657220307835382091
:1003200073657420746F2030780052582043444322
:10033000535320636F64652069733A20005458203A
:10034000434443535320636F64652069733A20002C
:100350007278637373547970652069733A200074FE
:1003600078637373547970652069733A2000537110
:1003700075656C6368206973200054582067616953
:100380006E2069733A2000566F6C756D6532206976
:10039000733A2000566F6C756D65312069733A2091
:1003A00000524620706F77657220697320002048E4
:1003B0007A0053657474696E672052582043544321
:1003C0005353206672657175656E637920746F2072
:1003D00000727843544353532069733A20002048F5
:1003E0007A0053657474696E6720545820435443EF
:1003F0005353206672657175656E637920746F2042
:1004000000747843544353532069733A2000204DBD
:10041000487A0053657474696E67205258205246BA
:10042000206672657175656E637920746F20002097
:100430004D487A0053657474696E67205458205291
:1004400046206672657175656E637920746F200051
:100450004E6F726D616C00496E76657274656400F2
:10046000546865205258434443535320636F646576
:100470002069733A20004E6F726D616C00496E7690
:10048000657274656400546865205458434443534E
:100490005320636F64652069733A2000496E697464
:1004A00069616C697A696E67207661726961626CF4
:1004B00065732066726F6D20454550524F4D207612
:1004C000616C75657300456E7465726564204545A1
:1004D00050524F4D2064656661756C747320696E6F
:1004E000697469616C697A6174696F6E004E6F77C7
:1004F00020696E205258206D6F6465004E6F772022
:10050000696E205458206D6F646500353030206D61
:10051000732064656C6179000000000024002700EE
:100520002A0000000000250028002B000000000029
:100530002300260029000404040404040404020225
:100540000202020203030303030301020408102052
:10055000408001020408102001020408102000005D
:100560000008000201000003040700000000000072
:100570000000800C931911241FBECFEFD8E0DEBF1E
:10058000CDBF25E0A2E5B4E001C01D92A836B207B8
:10059000E1F714E0A0E0B1E0E0E5FDE302C0059082
:1005A0000D92A235B107D9F712E0CAEBD2E004C030
:1005B0002197FE010E949A1CC93BD107C9F70E94EE
:1005C000F00C0C949B1E0C940000833081F028F4F6
:1005D000813099F08230A9F008958730A9F08830F1
:1005E000C9F08430B1F4809180008F7D03C0809188
:1005F00080008F7780938000089584B58F7784BDC5
:10060000089584B58F7DFBCF8091B0008F77809364
:10061000B00008958091B0008F7DF9CFCF93DF9324
:10062000282F30E0F901E25AFA4F8491F901E65B94
:10063000FA4FD491F901EA5CFA4FC491CC23A1F0AE
:1006400081110E94E502EC2FF0E0EE0FFF1FE45D48
:10065000FA4FA591B491EC91ED2381E090E009F47B
:1006600080E0DF91CF91089580E090E0FACF1F9372
:10067000CF93DF93282F30E0F901E25AFA4F8491AB
:10068000F901E65BFA4FD491F901EA5CFA4FC491A3
:10069000CC23A9F0162F81110E94E502EC2FF0E087
:1006A000EE0FFF1FEE5DFA4FA591B4918FB7F8944E
:1006B000EC91111108C0D095DE23DC938FBFDF9140
:1006C000CF911F910895DE2BF8CFCF93DF9390E069
:1006D000FC01E65BFA4F24918A5C9A4FFC018491FD
:1006E0008823C9F090E0880F991FFC01E85EFA4F5B
:1006F000A591B491FC01EE5DFA4FC591D4916111C1
:100700000DC09FB7F8948C91209582238C9388819B
:10071000282328839FBFDF91CF910895623051F441
:100720009FB7F8943C91822F809583238C93E88126
:100730002E2BEFCF8FB7F894EC912E2B2C938FBFED
:10074000EACF3FB7F8948091900490919104A091E2
:100750009204B091930426B5A89B05C02F3F19F0D1
:100760000196A11DB11D3FBFBA2FA92F982F882731
:10077000BC01CD01620F711D811D911D43E0660F0B
:10078000771F881F991F4A95D1F708958F929F92DE
:10079000AF92BF92CF92DF92EF92FF924B015C013A
:1007A0000E94A1036B017C010E94A1036C197D09C9
:1007B0008E099F09683E734081059105A8F321E0E9
:1007C000821A9108A108B10888EEC80E83E0D81EED
:1007D000E11CF11C81149104A104B10429F7FF90DC
:1007E000EF90DF90CF90BF90AF909F908F90089543
:1007F0002FB7F89460918C0470918D0480918E04D1
:1008000090918F042FBF08950895AF92BF92CF9219
:10081000DF92EF92FF920F931F93CF93DF936C01C0
:100820007B018B01040F151FEB015E01AE18BF08A1
:10083000C017D10759F06991D601ED91FC91019053
:10084000F081E02DC6010995892B79F7C501DF916B
:10085000CF911F910F91FF90EF90DF90CF90BF90BD
:10086000AF900895FC01538D448D252F30E0842FE7
:1008700090E0821B930B541710F0CF9608950197C8
:100880000895FC01918D828D981761F0A28DAE0FB5
:10089000BF2FB11D5D968C91928D9F5F9F73928F3C
:1008A00090E008958FEF9FEF08950F931F930E949C
:1008B000F8036093A1047093A2048093A30490931F
:1008C000A40489E994E00E94410497FF1DC00E949E
:1008D000F8030091A1041091A2042091A304309187
:1008E000A404601B710B820B930B00919D0410916B
:1008F0009E0420919F043091A00460177107820725
:100900009307F8F28FEF9FEF1F910F910895FC016D
:10091000918D828D981731F0828DE80FF11D858DB4
:1009200090E008958FEF9FEF0895FC01918D228D47
:10093000892F90E0805C9F4F821B91098F739927CC
:10094000089589E994E00E94950421E0892B09F437
:1009500020E0822F089580E090E0892B29F00E940A
:10096000A10481110C9400000895FC01A48DA80F2E
:10097000B92FB11DA35ABF4F2C91848D90E00196E1
:100980008F739927848FA689B7892C93A089B18901
:100990008C91837080648C93938D848D981306C0A2
:1009A0000288F389E02D80818F7D80830895EF9206
:1009B000FF920F931F93CF93DF93EC0181E0888F19
:1009C0009B8D8C8D98131AC0E889F989808185FFE9
:1009D00015C09FB7F894EE89FF896083E889F9898B
:1009E00080818370806480839FBF81E090E0DF918D
:1009F000CF911F910F91FF90EF900895F62E0B8DE0
:100A000010E00F5F1F4F0F731127E02E8C8D8E119A
:100A10000CC00FB607FCFACFE889F989808185FF01
:100A2000F5CFCE010E94B504F1CFEB8DEC0FFD2F79
:100A3000F11DE35AFF4FF0829FB7F8940B8FEA89BC
:100A4000FB8980818062CFCF0F931F93CF93DF9379
:100A50008C01D0E0C0E0F801EC0FFD1F649166232B
:100A600041F089E994E00E94D704892B11F0219686
:100A7000F2CFCE01DF91CF911F910F910895CF93C7
:100A8000DF93EC01888D8823B9F0AA89BB89E889B6
:100A9000F9898C9185FD03C0808186FD0DC00FB65C
:100AA00007FCF7CF8C9185FFF2CF808185FFEDCFDA
:100AB000CE010E94B504E9CFDF91CF910895AF92A6
:100AC000BF92CF92DF92EF92FF920F931F93CF933B
:100AD000DF93B82EC62F7A010091030161E0802FC9
:100AE0000E946503AC2EE894A7F860E08B2D0E946D
:100AF0003703D0E0C0E090E8C92ED12C109104015A
:100B000060E0812F0E943703B6010C2E02C075955C
:100B100067950A94E2F76A21802F0E94370361E00B
:100B2000812F0E9437032196C830D10539F7D0E0D4
:100B3000C0E0C12C80E8D82E60E0812F0E943703EE
:100B4000C6010C2E02C0969587950A94E2F78E2175
:100B50009F2161E0892B09F460E0802F0E94370318
:100B600061E0812F0E9437032196C031D10521F722
:100B700061E08B2D0E94370381E0DF91CF911F91BF
:100B80000F91FF90EF90DF90CF90BF90AF900895BE
:100B90009F92AF92BF92CF92DF92EF92FF920F930C
:100BA0001F93CF93DF93982EC62F6A01FA0111820B
:100BB00010821091030161E0812F0E946503C068DB
:100BC00060E0892D0E943703F12CE12C80E8A82EEB
:100BD000B12CD0E00091040160E0802F0E94370327
:100BE000C5010E2C02C0959587950A94E2F78C23D7
:100BF0009D2361E0892B09F460E0812F0E94370377
:100C000061E0802F0E943703FFEFEF1AFF0A48E0F0
:100C1000E416F104F9F660E0812F0E946503CFE04D
:100C2000D0E060E0802F0E94370361E0802F0E94B7
:100C30003703812F0E940E039C010C2E02C0220F4D
:100C4000331F0A94E2F7F60180819181822B932B66
:100C500091838083219728F761E0892D0E943703D3
:100C600081E0DF91CF911F910F91FF90EF90DF9086
:100C7000CF90BF90AF909F900895CF92DF92EF9268
:100C8000FF920F931F93CF93DF9300D0CDB7DEB7C2
:100C9000F82EE62ED42EC22EAE014F5F5F4F0E947B
:100CA000C805882391F12D2D2C19330BC90101960C
:100CB00029813A8141E050E002C0440F551FCA9497
:100CC000E2F741505109082E02C0440F551F0A9403
:100CD000E2F702C0000F111F8A95E2F702271327DF
:100CE00040235123422753275A8349836E2D8F2D4A
:100CF0000E945F050F900F90DF91CF911F910F9190
:100D0000FF90EF90DF90CF90089580E0F3CF0F93A6
:100D10001F93880F991FAC014F5F5F4F8B0122E03B
:100D20006FE1809154050E943D061F910F91089537
:100D30000F931F93CF93DF93C4E5D5E010E000E05D
:100D400022E046E060E388810E943D0662E070E0B8
:100D500084E090E00E94870663E070E085E090E028
:100D60000E9487061A8681E08B87DF91CF911F91C1
:100D70000F910895DF92EF92FF920F931F93CF93FD
:100D8000DF9300D0CDB7DEB7182F062FD42E790110
:100D9000AE014F5F5F4F0E94C80581E090E002C046
:100DA000880F991FDA94E2F749815A81EF2891F070
:100DB000482B592B5A834983602F812F0E945F054E
:100DC0000F900F90DF91CF911F910F91FF90EF90B7
:100DD000DF9008958095909548235923EBCFCF93CA
:100DE000C82F8823D1F010925E0581E080935F05C3
:100DF00080E00E94160762E070E084E090E00E94CC
:100E0000870663E070E085E090E00E94870662E379
:100E100070E080E090E00E94C6032C2F30E045E0B7
:100E200060E380915405CF910C94BA06CF93C82FFC
:100E30008823D1F081E080935E0510925F0580E009
:100E40000E94EF0663E070E084E090E00E94870675
:100E500062E070E085E090E00E94870662E370E067
:100E600080E090E00E94C6032C2F30E046E060E373
:100E700080915405CF910C94BA06CF92DF92EF92F5
:100E8000FF920F931F936B017C010E94F1196093F5
:100E9000600570936105809362059093630584E01B
:100EA000CC0CDD1CEE1CFF1C8A95D1F710E000E095
:100EB00022E046E060E3809154050E943D0643E64F
:100EC00057E865E0809154050E945F05A7015F73B4
:100ED00069E2809154050E945F05A6016AE2809153
:100EE00054050E945F0580915F05882349F081E0E9
:100EF0001F910F91FF90EF90DF90CF900C94EF0631
:100F000080915E05882349F081E01F910F91FF9049
:100F1000EF90DF90CF900C9416071F910F91FF90E8
:100F2000EF90DF90CF900895FC0101900020E9F749
:100F30003197AF01481B590BBC0189E994E00C942F
:100F40000504CF93DF930E942405EC0184E094E034
:100F50000E9494078C0F9D1FDF91CF9108958F926F
:100F60009F92AF92BF920F931F93CF93DF93CDB712
:100F7000DEB7A1970FB6F894DEBF0FBECDBF19A2A2
:100F8000423008F44AE08E010F5D1F4F842E912CF1
:100F9000B12CA12CA50194010E94781CE62FB90167
:100FA000CA01EA30F4F4E05DD801EE938D01232B01
:100FB000242B252B79F790E080E0109719F0CD01D4
:100FC0000E949407A1960FB6F894DEBF0FBECDBF66
:100FD000DF91CF911F910F91BF90AF909F908F9015
:100FE0000895E95CE1CFBC01990F880B990B4AE0A9
:100FF0000C94AF07682F70E090E080E04AE00C941A
:10100000AF07CF93DF930E949407EC0184E094E054
:101010000E9494078C0F9D1FDF91CF910895CF936D
:10102000DF93FC01448155816081718189E994E0FD
:101030000E940504EC0184E094E00E9494078C0F68
:101040009D1FDF91CF910895CF93DF930E94FA0700
:10105000EC0184E094E00E9494078C0F9D1FDF91C7
:10106000CF91089587E094E00C949407CF93DF9399
:10107000462FBC0190E080E00E94AF07EC0184E0C5
:1010800094E00E9494078C0F9D1FDF91CF910895EB
:101090004F925F926F927F928F929F92AF92BF9288
:1010A000CF92DF92EF92FF92CF936B017C01842E5F
:1010B000AC019B010E94731C882389F089E094E0B5
:1010C000CF91FF90EF90DF90CF90BF90AF909F9027
:1010D0008F907F906F905F904F900C9494072601B3
:1010E0003701E89477F82FEF3FEF4FE75FE7C30151
:1010F000B2010E94731C81110DC02FEF3FEF4FE72B
:101100005FE7C301B2010E94EC1918161CF48DE0D0
:1011100094E0D6CF2FEF3FEF4FE75FE4C701B60172
:101120000E946E1C18161CF481E194E0C9CF2FEFC9
:101130003FEF4FE75FECC701B6010E94EC1987FD56
:10114000F3CF20E030E0A901C701B6010E94EC19FD
:10115000B12CA12C87FF0AC06DE289E994E00E94BE
:10116000D7045C01F7FAF094F7F8F094C82D60E02A
:1011700070E080E09FE3912C20E030E040E251E419
:101180000E94CD1B93949814B8F3A70196010E9476
:10119000611B2B013C010E943F1C6B017C010E94E2
:1011A000F1199B01AC01C301B2010E94601B2B012C
:1011B0003C014AE0C701B6010E94AF077C016EE224
:1011C00089E994E00E94D704E80EF91EEA0CFB1CA2
:1011D000C15018F120E030E040E251E4C301B20117
:1011E0000E94521A2B013C010E943F1C4B01B12C62
:1011F000A12C4AE0C501B4010E94AF07E80EF91E18
:10120000C501B4010E94F1199B01AC01C301B201F7
:101210000E94601B2B013C01DBCFC701CF91FF90E7
:10122000EF90DF90CF90BF90AF909F908F907F9086
:101230006F905F904F900895FC018081918100979D
:1012400011F00C94A71960E070E0CB010895AF9203
:10125000BF92CF92DF92EF92FF920F931F93CF93A3
:10126000DF93DC01CD90DC901197C114D10439F0EB
:101270001496CD91DC918C017601209761F4DF9179
:10128000CF911F910F91FF90EF90DF90CF90BF9083
:10129000AF90089575015701BFEFAB1ABB0AF70174
:1012A0008081082E000C990B0E94E319892B91F77D
:1012B0002197CC0DDD1D8881082E000C990B0E9412
:1012C000E319892B29F0CE15DF0510F02197F3CF14
:1012D000AE014F5F5F4F4E195F09D80115965C93C1
:1012E0004E931497CE14DF0420F4B701C6010E9478
:1012F000821ED801ED91FC91119714968D919C91CD
:10130000E80FF91F1082BBCF0F931F93CF93DF938A
:101310008C01EB01FC01808191810097E1F06881F3
:10132000798161157105A9F0428153812C813D813C
:101330004217530770F00E94941E8C819D81F80122
:10134000958384831D821C82DF91CF911F910F9121
:1013500008950E943C1D88819981F80191838083C2
:101360008A819B81938382838C819D8195838483F1
:10137000198218821B821A82E5CFCF93DF93EC018A
:1013800088819981009711F00E943C1D1982188272
:101390001D821C821B821A82DF91CF910895FC016D
:1013A00080819181009711F00C943C1D08950F935A
:1013B0001F93CF93DF93EC0188819981009759F0B7
:1013C0002A813B812617370730F081E0DF91CF91EA
:1013D0001F910F9108958B016F5F7F4F0E94C51D74
:1013E000009759F0998388831B830A832C813D8160
:1013F000232B59F7FC011082E8CF80E0E7CFEF9272
:10140000FF920F931F93CF93DF938C017B016115A4
:10141000710561F0EB0109900020E9F72197C61BE7
:10142000D70BBE010E94D70981110BC0C8010E94D1
:10143000BD09C801DF91CF911F910F91FF90EF90EF
:101440000895F801D583C483B701808191810E94FA
:10145000941EEFCFEF92FF920F931F93CF93DF93E2
:10146000EC017B01198218821B821A821D821C8268
:10147000FB0101900020E9F731978F01061B170B44
:10148000B8010E94D709811109C0CE01DF91CF9127
:101490001F910F91FF90EF900C94BD091D830C8359
:1014A000B70188819981DF91CF911F910F91FF90B2
:1014B000EF900C94941ECF92DF92EF92FF920F93D5
:1014C0001F93CF93DF937C0100914C0510914D0544
:1014D00086E0C82ED12C0630110518F4680106E00C
:1014E00010E066E074E0C7010E942A0AC0914C0532
:1014F000D0914D05CC16DD06E0F40C171D0708F45D
:10150000E801E0914805F0914905EC0FFD1F1081BD
:10151000108260914805709149056C0D7D1DC701D1
:101520000E94FF098091480590914905C80FD91F75
:101530001883C701DF91CF911F910F91FF90EF901A
:10154000DF90CF900895EF92FF920F931F93CF9368
:10155000DF9300D0CDB7DEB78C0166E074E00E9467
:101560002A0A0E94550497FD21C08A309105F1F0A6
:1015700089831A82F801E480F580FFEFEF1AFF0AF1
:10158000B701C8010E94D709882359F3F8012081C7
:10159000318184819581BE016F5F7F4F820F931FE0
:1015A0000E94941EF801F582E482DBCFC8010F90FF
:1015B0000F90DF91CF911F910F91FF90EF900895C1
:1015C0000F931F93CF93DF938C01EB010E94131BAA
:1015D0008883C80101960E94131B8983CE01DF9185
:1015E000CF911F910F910895CF92DF92EF92FF92CA
:1015F0000F931F93CF93DF93EB017B0124E0E20E67
:10160000F11C8B016C01C61AD70AC601800F911F0D
:101610000E94131BF80181938F01EE15FF05A9F7B6
:10162000CE01DF91CF911F910F91FF90EF90DF904E
:10163000CF900895CF93DF93EB010E94131B888313
:10164000CE01DF91CF910895CF93DF93EB010E94FC
:10165000131B8883CE01DF91CF910895FF920F93E2
:101660001F93CF93DF93EC01F62E08811981C801F7
:101670000E94131BF81621F06F2DC8010E941B1B3E
:10168000CE01DF91CF911F910F91FF900895CF93DD
:10169000DF9300D0CDB7DEB79A8389836091980439
:1016A000CE0101960E942E0B88E994E00F900F90D6
:1016B000DF91CF910895EF92FF920F931F93CF93F5
:1016C000DF9300D0CDB7DEB704E914E0845994402D
:1016D0007C01C701800F911F9A838983F801619172
:1016E0008F01CE0101960E942E0BF4E008391F07EE
:1016F00081F784E994E00F900F90DF91CF911F91D3
:101700000F91FF90EF900895AF92BF92CF92DF922A
:10171000EF92FF920F931F93CF93DF9300D0CDB73B
:10172000DEB78B016B0124E0C20ED11C7B015C0192
:10173000A61AB70AC5018E0D9F1D9A838983F701EA
:1017400061917F01CE0101960E942E0BEC14FD04E5
:1017500089F7C8010F900F90DF91CF911F910F91E2
:10176000FF90EF90DF90CF90BF90AF900895EF92F1
:10177000FF920F931F93CF93DF9300D0CDB7DEB7C7
:101780008C017B019A838983FB016081CE010196E4
:101790000E942E0B0F5F1F4F1A830983F70161818F
:1017A000CE0101960E942E0BC7010F900F90DF9182
:1017B000CF911F910F91FF90EF9008951F920F927C
:1017C0000FB60F9211242F933F938F939F93AF9354
:1017D000BF9380918C0490918D04A0918E04B09160
:1017E0008F0430918B0426E0230F2D3758F5029695
:1017F000A11DB11D20938B0480938C0490938D04C4
:10180000A0938E04B0938F048091900490919104E2
:10181000A0919204B09193040196A11DB11D8093F3
:10182000900490939104A0939204B0939304BF9179
:10183000AF919F918F913F912F910F900FBE0F907D
:101840001F90189529E8230F0396A11DB11DD2CF33
:101850001F920F920FB60F9211242F933F934F9325
:101860005F936F937F938F939F93AF93BF93EF9308
:10187000FF9389E994E00E94B504FF91EF91BF9135
:10188000AF919F918F917F916F915F914F913F9118
:101890002F910F900FBE0F901F9018951F920F92CF
:1018A0000FB60F9211242F938F939F93EF93FF9373
:1018B000E091A904F091AA048081E091AF04F09135
:1018C000B00482FD1BC090818091B2048F5F8F7342
:1018D0002091B304821741F0E091B204F0E0E756A2
:1018E000FB4F958F8093B204FF91EF919F918F9161
:1018F0002F910F900FBE0F901F9018958081F4CFFD
:10190000E9E9F4E01382128288EE93E0A0E0B0E00F
:1019100084839583A683B78386EF93E09183808346
:1019200085EC90E09587848784EC90E097878687A4
:1019300080EC90E0918B808B81EC90E0938B828B9C
:1019400082EC90E0958B848B86EC90E0978B868B75
:10195000118E128E138E148EE4E5F5E08FE08083F5
:1019600093E091838093050183E18093040182E1F8
:101970008093030161E08FE00E94650361E08FE0E6
:101980000E94370361E083E10E94650361E083E127
:101990000E94370361E082E10E94650361E082E119
:1019A0000E94370365E174E08EE495E00E942A0A04
:1019B00066E074E088E495E00E942A0A66E074E03C
:1019C00082E495E00E942A0A66E074E08CE395E0E8
:1019D0000E942A0A66E074E086E395E00C942A0AE5
:1019E000CF93DF93CDB7DEB7AB970FB6F894DEBFDA
:1019F0000FBECDBF789484B5826084BD84B581600C
:101A000084BD85B5826085BD85B5816085BD8091C9
:101A10006E00816080936E00109281008091810041
:101A20008260809381008091810081608093810039
:101A3000809180008160809380008091B1008460FB
:101A40008093B1008091B00081608093B00080915C
:101A50007A00846080937A0080917A00826080931B
:101A60007A0080917A008E7F80937A0080917A004C
:101A7000806880937A001092C10062E08AE00E9440
:101A8000650361E080E10E94650361E080E10E94FE
:101A9000370361E081E10E94650361E081E10E941A
:101AA000370362E082E00E94650362E088E00E9402
:101AB0006503E091A904F091AA0482E08083E0919B
:101AC000A504F091A6041082E091A704F091A80467
:101AD00087E680831092B104E091AD04F091AE04EA
:101AE00086E08083E091AB04F091AC04808180615A
:101AF0008083E091AB04F091AC04808188608083A6
:101B0000E091AB04F091AC04808180688083E09127
:101B1000AB04F091AC0480818F7D8083B4E18B2E87
:101B2000912CA12CB12C80929D0490929E04A092A5
:101B30009F04B092A00464EF71E080E090E00E9406
:101B4000C6038AE991E00E94A10784EF91E0A0E03A
:101B5000B0E080939D0490939E04A0939F04B09363
:101B6000A004CE0107960E94A30ACE0107960E9408
:101B7000270980929D0490929E04A0929F04B092A7
:101B8000A0048B859C85892B09F43AC40F811885A4
:101B90006CE274E0C8010E948B1E892B09F022C4FC
:101BA0008DE394E00E94010889E994E00E94950485
:101BB000892BD1F3CE0101960E94A30ABE016F5F6B
:101BC0007F4F88E495E00E948409CE0101960E942F
:101BD000CF0988E495E00E94270988E495E00E94F7
:101BE0000F0866E074E0CE0101960E942A0A009177
:101BF0004C0510914D0504301105F8F00430110525
:101C000011F005E010E0E0914805F0914905E00F82
:101C1000F11FF080108260914805709149056D5F59
:101C20007F4FCE0101960E94FF0980914805909157
:101C30004905080F191FF801F082BE016F5F7F4F41
:101C40008CE395E00E948409CE0101960E94CF09A1
:101C50008CE395E00E941C09683109F4FEC208F08B
:101C600093C06E3009F499C208F04AC0693009F493
:101C70005AC230F5613009F410C2653009F094CFD2
:101C8000CE0101960E945B0ABE016F5F7F4F86E323
:101C900095E00E948409CE0101960E94CF0986E357
:101CA00095E00E941C0960939404709395048093BE
:101CB00096049093970485E090E00E945B0B74CFAC
:101CC0006B3009F44EC26D3009F06ECFCE01019633
:101CD0000E945B0ABE016F5F7F4F86E395E00E9422
:101CE0008409CE0101960E94CF0986E395E00E9407
:101CF0001C09609398048DE090E00E94470B54CF3C
:101D0000643109F47AC2F0F46F3009F45EC26031D4
:101D100009F04ACFCE0101960E945B0ABE016F5FB7
:101D20007F4F86E395E00E948409CE0101960E94D0
:101D3000CF0986E395E00E941C096093980480E136
:101D400090E0DBCF653109F470C2663109F02CCF29
:101D5000CE0101960E945B0ABE016F5F7F4F86E352
:101D600095E00E948409CE0101960E94CF0986E386
:101D700095E00E941C09709353046093520462E53D
:101D800074E086E190E0EAC16A3209F4D2C208F058
:101D900040C0613209F49DC2F0F46C3109F47BC299
:101DA000603209F001CFCE0101960E945B0ABE01AC
:101DB0006F5F7F4F86E395E00E948409CE01019614
:101DC0000E94CF0986E395E00E941C096093980465
:101DD00080E290E092CF683209F493C2693209F050
:101DE000E3CECE0101960E945B0ABE016F5F7F4F7A
:101DF00086E395E00E948409CE0101960E94CF09F6
:101E000086E395E00E941C096093980489E290E0C3
:101E100074CF6D3209F4BDC2F0F46B3209F4A1C283
:101E20006C3209F0C1CECE0101960E945B0ABE0160
:101E30006F5F7F4F86E395E00E948409CE01019693
:101E40000E94CF0986E395E00E941C0960939804E4
:101E50008CE290E052CF603609F4B3C2623609F4E6
:101E6000BCC26D3509F0A0CEBE016B5E7F4F81E034
:101E700090E00E94F40ABE016F5E7F4F85E090E023
:101E80000E94F40ABE01655E7F4F89E090E00E94E7
:101E9000E00ABE01675E7F4F8BE090E00E94E00A9F
:101EA000BE01655D7F4F8DE090E00E941A0BBE0180
:101EB000665D7F4F8EE090E00E941A0BBE01675D69
:101EC0007F4F8FE090E00E941A0BBE01685D7F4F4C
:101ED00080E190E00E941A0BBE01695D7F4F84E1B2
:101EE00090E00E941A0BBE016A5D7F4F85E190E091
:101EF0000E941A0BBE016E5D7F4F86E190E00E944A
:101F0000240BBE01635F7F4F88E190E00E94F40ADA
:101F1000BE016F5F7F4F8CE190E00E94F40ABE012A
:101F20006B5D7F4F80E290E00E941A0BBE016C5DFA
:101F30007F4F81E290E00E941A0BBE016F5D7F4FE0
:101F400088E290E00E94240BBE01605E7F4F89E230
:101F500090E00E94240BBE01615E7F4F8AE290E018
:101F60000E94240BBE01625E7F4F8BE290E00E94D4
:101F7000240BBE01635E7F4F8CE290E00E94240B35
:101F8000BE016D5D7F4F8DE290E00E941A0B6D895E
:101F90007E898F89988D4AE00E94AF070E9432089F
:101FA00069897A898B899C894AE00E94AF070E94DF
:101FB00032086B8D7C8D90E080E04AE00E94AF0794
:101FC0000E943208698D7A8D90E080E04AE00E949C
:101FD000AF070E9432088BA50E94FA070E943208C0
:101FE0008AA50E94FA070E94320889A50E94FA0772
:101FF0000E94320888A50E94FA070E9432088FA129
:102000000E94FA070E9432088EA10E94FA070E94DD
:1020100032088AA190E00E94F3070E9432086D8581
:102020007E858F8598894AE00E94AF070E9432081A
:1020300069817A818B819C814AE00E94AF070E946E
:1020400032088DA10E94FA070E9432088CA10E94DA
:10205000FA070E94320889A190E00E94F3070E94CB
:10206000320888A190E00E94F3070E9432088F8D09
:1020700090E00E94F3070E9432088E8D90E00E944B
:10208000F3070E9432088D8D90E00E94F3070E94B2
:1020900032088BA10E94240887CDCE0101960E94B0
:1020A0005B0ABE016F5F7F4F86E395E00E94840963
:1020B000CE0101960E94CF0986E395E00E941C099B
:1020C000609394047093950480939604909397047E
:1020D0008B019C010058124322403109013A1F40F4
:1020E00021053105A0F08B019C01005313462340CC
:1020F0003109093B1B402105310548F0605A7846FB
:1021000086409109613375478105910548F481E066
:1021100090E00E945B0B8DE690E00E94A10744CD09
:1021200088E690E0FACFCE0101960E945B0ABE01DC
:102130006F5F7F4F86E395E00E948409CE01019690
:102140000E94CF0986E395E00E941C097093530416
:102150006093520462E574E089E090E00E94B70B5E
:1021600023CDCE0101960E945B0ABE016F5F7F4FB7
:1021700086E395E00E948409CE0101960E94CF0972
:1021800086E395E00E941C09709353046093520407
:1021900062E574E08BE090E0E1CFCE0101960E9411
:1021A0005B0ABE016F5F7F4F86E395E00E94840962
:1021B000CE0101960E94CF0986E395E00E941C099A
:1021C000609398048EE090E098CDCE0101960E9435
:1021D0005B0ABE016F5F7F4F86E395E00E94840932
:1021E000CE0101960E94CF0986E395E00E941C096A
:1021F000609398048FE090E080CDCE0101960E941C
:102200005B0ABE016F5F7F4F86E395E00E94840901
:10221000CE0101960E94CF0986E395E00E941C0939
:102220006093980484E190E068CDCE0101960E940D
:102230005B0ABE016F5F7F4F86E395E00E948409D1
:10224000CE0101960E94CF0986E395E00E941C0909
:102250006093980485E190E050CDCE0101960E94F4
:102260005B0ABE016F5F7F4F86E395E00E948409A1
:10227000CE0101960E94CF0986E395E00E941C09D9
:1022800060939404709395048093960490939704BC
:1022900088E190E012CDCE0101960E945B0ABE015A
:1022A0006F5F7F4F86E395E00E948409CE0101961F
:1022B0000E94CF0986E395E00E941C096093940474
:1022C0007093950480939604909397048CE190E02A
:1022D000F4CCCE0101960E945B0ABE016F5F7F4F76
:1022E00086E395E00E948409CE0101960E94CF0901
:1022F00086E395E00E941C096093980481E290E0D7
:10230000FCCCCE0101960E945B0ABE016F5F7F4F3D
:1023100086E395E00E948409CE0101960E94CF09D0
:1023200086E395E00E941C096093980488E290E09F
:10233000E4CCCE0101960E945B0ABE016F5F7F4F25
:1023400086E395E00E948409CE0101960E94CF09A0
:1023500086E395E00E941C09609398048AE290E06D
:10236000CCCCCE0101960E945B0ABE016F5F7F4F0D
:1023700086E395E00E948409CE0101960E94CF0970
:1023800086E395E00E941C09609398048BE290E03C
:10239000B4CCCE0101960E945B0ABE016F5F7F4FF5
:1023A00086E395E00E948409CE0101960E94CF0940
:1023B00086E395E00E941C09609398048DE290E00A
:1023C0009CCC84E690E09A838983BE016F5F7F4F47
:1023D00090E080E00E94B70BE7CB8EE495E00E948E
:1023E0000F08E2CB64E474E0C8010E948B1E892BC5
:1023F00039F481E0809364048DE394E00E94010845
:1024000041E050E060E3809154050E945F0564E67E
:1024100070E080E090E00E94C60344E050E060E39A
:10242000809154050E945F0584E891E00E94A10715
:102430008EE495E00E940F0886E691E00E94A107D5
:1024400046E555E060E0809154050E94C805809102
:102450005605909157058634984109F05DC58AE488
:1024600091E00E94A10787E191E00E94A1070CE0A2
:1024700011E0FEE2CF2EF3E0DF2EA8EE8A2EA3E0DD
:102480009A2EA12CB12CF8014181528160818FE0FC
:102490000E945F05F8016381748185819681683EA1
:1024A000F3E07F078105910508F439C5A501940182
:1024B0000E94781CCA01B9010E94C603095F1F4F20
:1024C000C016D10601F782EF90E00E94A10703E356
:1024D00010E02AE04FE069E58FE00E943D0681EDC3
:1024E00090E00E94240583E390E00E94F30784E0DB
:1024F00094E00E9494070FE010E026E045E069E5D3
:102500008FE00E943D0686EB90E00E9424058FE05C
:1025100090E00E94F30784E094E00E94940703E0B7
:1025200010E022E04DE060E3809154050E943D06FA
:1025300084EA90E00E942405AE014F5F5F4F60E3A4
:10254000809154050E94C805882359F02A81822F62
:1025500082958F7090E083709927909357058093B0
:1025600056058091560590915705892B09F0E9C4CD
:1025700083E294E00E94010830E020E043E060E361
:10258000809154050E94BA0601E010E021E04EE07F
:1025900060E38FE00E943D0610928904109283044C
:1025A0000E94980663E070E090E080E00E94870659
:1025B0008EE890E00E94A10780E790E00E94A107CA
:1025C000CE0107960E94CF0960E071E090E080E0C4
:1025D0000E941A0B80910001853609F4F0C086EC48
:1025E00094E00E94A10785E690E09A838983BE016A
:1025F0006F5F7F4F90E080E00E94B70B58E3852E1D
:1026000053EA952E56E0A52EB12C89829A82AB8290
:10261000BC82BE016F5F7F4F81E090E00E94840B1F
:1026200089829A82AB82BC82BE016F5F7F4F85E058
:1026300090E00E94840B00E117E21A830983BE0137
:102640006F5F7F4F89E090E00E94B70B1A83098388
:10265000BE016F5F7F4F8BE090E00E94B70B8FE071
:1026600090E09A838983BE016F5F7F4F8DE090E099
:102670000E94B70B8CE090E09A838983BE016F5F64
:102680007F4F8EE090E00E94B70B8DE090E09A8340
:102690008983BE016F5F7F4F8FE090E00E94B70B90
:1026A00085E090E09A838983BE016F5F7F4F80E170
:1026B00090E00E94B70B01E010E01A830983BE018D
:1026C0006F5F7F4F84E190E00E94B70B1A8309830C
:1026D000BE016F5F7F4F85E190E00E94B70B1A82C9
:1026E0001982BE016F5F7F4F86E190E00E94B70BB9
:1026F00067E3862E6EE0962E64E6A62EB12C8982C4
:102700009A82AB82BC82BE016F5F7F4F88E190E00E
:102710000E94840B89829A82AB82BC82BE016F5F69
:102720007F4F8CE190E00E94840B1A821982BE01D7
:102730006F5F7F4F80E290E00E94B70B1A82198290
:10274000BE016F5F7F4F81E290E00E94B70B1A825B
:102750001982BE016F5F7F4F88E290E00E94B70B45
:102760001A821982BE016F5F7F4F89E290E00E945A
:10277000B70B1A821982BE016F5F7F4F8AE290E029
:102780000E94B70B1A821982BE016F5F7F4F8BE2E6
:1027900090E00E94B70B1A821982BE016F5F7F4FD3
:1027A0008CE290E00E94B70B8BE090E09A838983E3
:1027B000BE016F5F7F4F8DE290E00E94B70B8CE906
:1027C00094E00E94A1076FE574E080E290E00E942F
:1027D0001A0B86E894E00E94240580915F04882308
:1027E00009F4B2C38DE794E00E94A1076EE574E09E
:1027F00081E290E00E941A0B80E694E00E9424059A
:1028000080915E04882309F4A2C387E594E00E94C6
:10281000A10764E874E081E090E00E94F40A84E398
:1028200094E00E9424056091840470918504809155
:102830008604909187040E94F11920E030E04AE775
:1028400054E40E94CD1B43E050E00E9448088FE210
:1028500094E00E94A10769E774E085E090E00E949F
:10286000F40A83E194E00E94240560917904709158
:102870007A0480917B0490917C040E94F11920E0FD
:1028800030E04AE754E40E94CD1B43E050E00E9450
:1028900048088EE094E00E94A1076091790470914D
:1028A0007A0480917B0490917C040E943D0761E84A
:1028B00074E089E090E00E94E00A81E094E00E94E8
:1028C00024056AE070E080918104909182040E9466
:1028D000360882EE93E00E94240560918104709195
:1028E000820490E080E00E94F11920E030E048ECA2
:1028F00052E40E94CD1B41E050E00E9448088EED5A
:1029000093E00E94A10763E774E08BE090E00E94EF
:10291000E00A81ED93E00E9424056AE070E0809176
:102920007304909174040E94360882EB93E00E9435
:102930002405609173047091740490E080E00E941B
:10294000F11920E030E048EC52E40E94CD1B41E058
:1029500050E00E9448088EEA93E00E94A10740914F
:102960007304509174046AE48FE00E945F05209123
:10297000730430917404E0E8F3E090E080E041916A
:1029800051912417350709F0E5C2880F991FFC0102
:10299000E25DFC4FE080F180A7016BE58FE00E94D3
:1029A0005F056DE574E08DE090E00E941A0BF090F9
:1029B0005D042FE02F1510F43FE0F32E10E000E04F
:1029C00022E046E060E3809154050E943D060F2D11
:1029D00010E024E04EE06AE0809154050E943D063C
:1029E00080915F05882309F4BBC281E00E94EF0655
:1029F00081EA93E00E94240580915D040E942408EE
:102A00006CE574E08EE090E00E941A0B00915C048B
:102A100010E024E047E064E48FE00E943D0684E992
:102A200093E00E942405AE014F5F5F4F64E4809104
:102A300054050E94C805882369F089819A8124E0A1
:102A4000969587952A95E1F78F709927909357056A
:102A5000809356056AE070E0809156059091570585
:102A60000E9436086BE574E08FE090E00E941A0B3C
:102A700000915B0410E024E043E064E48FE00E94F6
:102A80003D0687E893E00E942405AE014F5F5F4F4B
:102A900064E4809154050E94C805882341F089812F
:102AA0009A818F70992790935705809356056AE015
:102AB00070E080915605909157050E9436086AE5AE
:102AC00074E08DE290E00E941A0B00915A0410E02D
:102AD00024E04BE064E48FE00E943D068AE793E047
:102AE0000E94240580915A040E94240866E674E03E
:102AF00080E190E00E941A0B8EE693E00E9424058C
:102B0000809166040E94240868E874E084E190E003
:102B10000E941A0B8FE593E00E942405809188049F
:102B20000E94240880918804823009F43AC208F097
:102B300020C2882309F42CC203E010E0813009F49C
:102B400029C265E774E085E190E00E941A0B80E5F8
:102B500093E00E942405809175040E9424088091CE
:102B60007504823009F47DC208F042C2882309F45A
:102B70004FC2813009F455C26DE774E088E190E0FE
:102B80000E94F40A8DE393E00E94240560917D0485
:102B900070917E0480917F049091800440E10E94B6
:102BA000AF0784E094E00E9494076FE674E08CE144
:102BB00090E00E94F40A8AE293E00E94240560916A
:102BC0006F0470917004809171049091720440E1DF
:102BD0000E94AF0784E094E00E94940769E574E0E6
:102BE00088E290E00E94240B68E574E089E290E0BE
:102BF0000E94240B67E574E08AE290E00E94240BB7
:102C000066E574E08BE290E00E94240B65E574E0D9
:102C10008CE290E00E94240B64E574E086E190E091
:102C20000E94240B8091540410E000E0882311F0EE
:102C300000E010E220915904211176C230E020E03A
:102C40000560146880915804811171C290E080E0A1
:102C5000202B312B4091570410E000E0442311F069
:102C600000E210E0282B392B80915604811162C2BA
:102C700090E080E0022B132B2091550421115DC2BE
:102C800030E020E0082B192B022B132B40E350E0FF
:102C900060E48FE00E945F05A80168E58FE00E9474
:102CA0005F0541E350E060E48FE00E945F058BE048
:102CB00093E00E94240560E170E0C8010E9436089C
:102CC0008091590481113CC28AED92E00E94A107D3
:102CD00080915804811137C28BE992E00E94A107CC
:102CE00080915704811132C28EE592E00E94A107C3
:102CF0008091560481112DC281E292E00E94A107C9
:102D000080915504811128C282EE91E00E94A107B2
:102D100080915404811123C286EA91E00E94A107A8
:102D2000FF24F3940CE310E08AE00E940E0321E0FC
:102D3000892B09F020E020938A04220F80918904D6
:102D4000282B213009F40EC2223009F445C28091AB
:102D50008A048111E9CF809189048111E5CF8091A6
:102D60008304811129C08DEE94E00E94A107609137
:102D7000790470917A0480917B0490917C040E9484
:102D80003D0781E00E94EF066AE070E080E090E09D
:102D90000E94C6031093020100930101109278046F
:102DA000109277041092760461E080E10E9437036C
:102DB00061E081E10E94370380917504823009F45B
:102DC0004FC208F048C2882309F45DC2813009F47B
:102DD00061C2109268041092670447E654E06BE108
:102DE0008FE00E94C805609167047091680477279E
:102DF00090E080E00E94F11920E030E040E45FE3E1
:102E00000E94521A4B015C01609101017091020114
:102E100090E080E00E94F11920E030E040E85EE3BD
:102E20000E94521A9B01AC01C501B4010E94611BB2
:102E30000E943F1C7093020160930101209178046D
:102E4000E0916604F0E0222309F438C2EE51FC4F11
:102E500020812617170610F410927804E090780469
:102E600060E0E11001C061E080E10E943703B090B2
:102E70006504AE014F5F5F4F6CE18FE00E94C805B3
:102E8000CB2C89819A8102C096958795BA94E2F7F6
:102E90008170809377049091750491111AC2E09229
:102EA00077048091770460E0811101C061E081E1E5
:102EB0000E94370380916404882309F435CF0E946F
:102EC000F8038090600490906104A0906204B09038
:102ED0006304681979098A099B09683E7340810572
:102EE000910508F421CF0E94F80360936004709369
:102EF00061048093620490936304109268041092BA
:102F0000670447E654E06BE18FE00E94C8058091BA
:102F100068040E94240808CF82E391E0A2CA6115E8
:102F200071058105910509F4C9CA6330710508F47A
:102F3000C5CA660F771F64507109CB010197F1F77D
:102F4000BDCA8CE194E016CB86E794E04DCC80E5D9
:102F500094E05DCC01968932910509F010CD1CCD2D
:102F600080915E05882309F443CD81E00E94160715
:102F70003FCD833071F1843009F0E3CD40E854E374
:102F80006AE48FE00E945F0540E854E36DE40CC002
:102F900010E000E022E04AE06EE48FE00E943D068F
:102FA000D0CD40E854E36AE48FE00E945F0530E052
:102FB00020E046E06EE48FE00E94BA0620915F04B4
:102FC00030E048E06EE48FE00E94BA0602E010E0D4
:102FD000E1CF03E010E022E04AE06EE48FE00E94DF
:102FE0003D064CE755E16DE48FE00E945F05A9CDF9
:102FF000833009F473C0843009F0BECD40E854E357
:103000006AE48FE00E945F0540E854E36DE42CC061
:1030100010E000E025E044E06AE38FE00E943D0616
:10302000ABCD01E010E022E041E06FE18FE00E94D3
:103030003D0630E020E045E06AE38FE00E94BA06FA
:1030400030E020E043E068E58FE00E94BA0625E02A
:1030500044E06AE38FE00E943D0689E080936504C6
:103060008BCD40E854E36AE48FE00E945F0501E005
:1030700010E022E041E06FE18FE00E943D0630E089
:1030800020E045E06AE38FE00E94BA0630E020E0ED
:1030900043E068E58FE00E94BA0680915E048823D1
:1030A00099F004E010E025E044E06AE38FE00E943C
:1030B0003D0686E08093650430E020E046E06EE463
:1030C0008FE00E94BA0658CD02E010E025E044E00F
:1030D0006AE38FE00E943D0687E0ECCF01E010E05C
:1030E00022E041E06FE18FE00E943D0610E000E049
:1030F00021E045E06AE38FE00E943D0630E020E0F9
:1031000043E068E58FE00E94BA0601E010E025E0A8
:1031100044E06AE38FE00E943D064CE755E16DE430
:103120008FE00E945F0599CF20E830E089CD80E4F0
:1031300090E08ECD80E190E09DCD28E030E0A2CD02
:1031400082EF92E0C3CD8AEB92E0C8CD8CE792E0AB
:10315000CDCD8FE392E0D2CD81E092E0D7CD83EC6C
:1031600091E0DCCD80918804833049F028F08430F0
:1031700039F110928904EBCD0E949806FACF21E034
:1031800030E04BE060E38FE00E94BA064CE755E187
:103190006DE48FE00E945F058BE095E00E94A1073F
:1031A00064EF71E080E090E00E94C6030E94980600
:1031B00030E020E04BE060E38FE00E94BA06D9CF18
:1031C00021E030E04BE060E38FE00E94BA0668EC5B
:1031D00070E080E090E0E8CF609184047091850415
:1031E00080918604909187040E943D07F0928904A3
:1031F0008CEF94E00E94A1071092830461E080E1CB
:103200000E94370361E081E10E94370380918804C6
:10321000823059F030F48130A9F081E00E94160725
:1032200096CD833079F08430C1F740917D04509180
:103230007E046CE48FE00E945F0540917F0450E0C3
:103240006BE405C040918104509182046AE48FE0F0
:103250000E945F05E2CF833061F1843009F0B9CD7F
:10326000809183048111B5CDF092830440916F0465
:10327000509170046CE48FE00E945F0540917104EE
:1032800050E06BE412C0809183048111A2CDF092D2
:1032900083049FCD8091830481119BCDF0928304A0
:1032A00040917304509174046AE48FE00E945F05BA
:1032B00090CD809183048111D3CFF0CFEE52FC4F9B
:1032C00020812617170609F008F4C8CDF09278047B
:1032D000C5CDE09076048E1509F4E3CD0E94F80385
:1032E0004B015C010E94F803681979098A099B095E
:1032F000683271058105910508F0D3CDAE014F5FAD
:103300005F4F6CE18FE00E94C80589819A810C2C87
:1033100002C0969587950A94E2F7817080937704AE
:10332000E812E0CFBECD86E395E00E94CF098CE3A2
:1033300095E00E94CF0982E495E00E94CF0988E4DD
:1033400095E00E94CF098EE495E00C94CF091F937D
:10335000FC0199278827BC01E89411911032E9F308
:10336000193010F01E30C8F31B3251F01D3249F4F1
:10337000689406C00E94CE19610F711D811D911DB8
:10338000119110531A30B0F33EF4909580957095DA
:1033900061957F4F8F4F9F4F1F910895592F482F51
:1033A000372F262F660F771F881F991F660F771FED
:1033B000881F991F620F731F841F951F660F771F49
:1033C000881F991F089591110C94BF1A803219F02B
:1033D00089508550C8F708950E942E1A08F481E09C
:1033E0000895E89409C097FB3EF4909580957095F8
:1033F00061957F4F8F4F9F4F9923A9F0F92F96E941
:10340000BB279395F695879577956795B795F111B5
:10341000F8CFFAF4BB0F11F460FF1BC06F5F7F4F52
:103420008F4F9F4F16C0882311F096E911C0772364
:1034300021F09EE8872F762F05C0662371F096E86D
:10344000862F70E060E02AF09A95660F771F881F3C
:10345000DAF7880F9695879597F90895990F0008E0
:10346000550FAA0BE0E8FEEF16161706E807F90756
:10347000C0F012161306E407F50798F0621B730BF1
:10348000840B950B39F40A2661F0232B242B252B72
:1034900021F408950A2609F4A140A6958FEF811D15
:1034A000811D08950E94651A0C94D91A0E94CB1AA6
:1034B00038F00E94D21A20F0952311F00C94C21A11
:1034C0000C94C81A11240C940D1B0E94EA1A70F374
:1034D000959FC1F3950F50E0551F629FF001729FB9
:1034E000BB27F00DB11D639FAA27F00DB11DAA1FC8
:1034F000649F6627B00DA11D661F829F2227B00D15
:10350000A11D621F739FB00DA11D621F839FA00D9F
:10351000611D221F749F3327A00D611D231F849FEF
:10352000600D211D822F762F6A2F11249F57504046
:103530009AF0F1F088234AF0EE0FFF1FBB1F661FC1
:10354000771F881F91505040A9F79E3F510580F08A
:103550000C94C21A0C940D1B5F3FE4F3983ED4F315
:10356000869577956795B795F795E7959F5FC1F72E
:10357000FE2B880F911D9695879597F908959927A9
:103580008827089597F99F6780E870E060E00895C4
:103590009FEF80EC089500240A941616170618066B
:1035A0000906089500240A94121613061406050647
:1035B0000895092E0394000C11F4882352F0BB0FD8
:1035C00040F4BF2B11F460FF04C06F5F7F4F8F4F3B
:1035D0009F4F089557FD9058440F551F59F05F3F76
:1035E00071F04795880F97FB991F61F09F3F79F025
:1035F00087950895121613061406551FF2CF4695A7
:10360000F1DF08C0161617061806991FF1CF869528
:103610007105610508940895E894BB27662777270C
:10362000CB0197F90895F999FECF92BD81BDF89A23
:10363000992780B50895262FF999FECF1FBA92BD1C
:1036400081BD20BD0FB6F894FA9AF99A0FBE019683
:1036500008952F923F924F925F926F927F928F9236
:103660009F92AF92BF92CF92DF92EF92FF920F9311
:103670001F93CF93DF93CDB7DEB7CA1BDB0B0FB61B
:10368000F894DEBF0FBECDBF09942A8839884888D8
:103690005F846E847D848C849B84AA84B984C8846E
:1036A000DF80EE80FD800C811B81AA81B981CE0F65
:1036B000D11D0FB6F894DEBF0FBECDBFED0108954A
:1036C0005058BB27AA270E94781B0C94D91A0E9435
:1036D000CB1A38F00E94D21A20F039F49F3F19F427
:1036E00026F40C94C81A0EF4E095E7FB0C94C21A69
:1036F000E92F0E94EA1A58F3BA1762077307840782
:10370000950720F079F4A6F50C940C1B0EF4E095C7
:103710000B2EBA2FA02D0B01B90190010C01CA018B
:10372000A0011124FF27591B99F0593F50F4503E36
:1037300068F11A16F040A22F232F342F4427585F28
:10374000F3CF469537952795A795F0405395C9F740
:103750007EF41F16BA0B620B730B840BBAF09150F8
:10376000A1F0FF0FBB1F661F771F881FC2F70EC097
:10377000BA0F621F731F841F48F48795779567956A
:10378000B795F7959E3F08F0B0CF9395880F08F056
:103790009927EE0F9795879508950E94E11B0C9449
:1037A000D91A0E94D21A58F00E94CB1A40F029F47C
:1037B0005F3F29F00C94C21A51110C940D1B0C940C
:1037C000C81A0E94EA1A68F39923B1F3552391F3BA
:1037D000951B550BBB27AA2762177307840738F080
:1037E0009F5F5F4F220F331F441FAA1FA9F335D0DD
:1037F0000E2E3AF0E0E832D091505040E695001C91
:10380000CAF72BD0FE2F29D0660F771F881FBB1F4A
:10381000261737074807AB07B0E809F0BB0B802D28
:10382000BF01FF2793585F4F3AF09E3F510578F054
:103830000C94C21A0C940D1B5F3FE4F3983ED4F332
:10384000869577956795B795F7959F5FC9F7880F28
:10385000911D9695879597F90895E1E0660F771F7A
:10386000881FBB1F621773078407BA0720F0621B0B
:10387000730B840BBA0BEE1F88F7E09508950E9436
:10388000F21A88F09F5798F0B92F9927B751B0F0E6
:10389000E1F0660F771F881F991F1AF0BA95C9F7D4
:1038A00014C0B13091F00E940C1BB1E008950C944B
:1038B0000C1B672F782F8827B85F39F0B93FCCF3FE
:1038C000869577956795B395D9F73EF49095809551
:1038D000709561957F4F8F4F9F4F08950E942E1ACC
:1038E00008F48FEF08950E942E1A880B990B089503
:1038F000A1E21A2EAA1BBB1BFD010DC0AA1FBB1FF4
:10390000EE1FFF1FA217B307E407F50720F0A21B65
:10391000B30BE40BF50B661F771F881F991F1A94D2
:1039200069F760957095809590959B01AC01BD01FC
:10393000CF010895EE0FFF1F0590F491E02D09943B
:103940000F931F93CF93DF938230910510F482E0A1
:1039500090E0E0916605F091670530E020E0B0E08E
:10396000A0E0309799F42115310509F44AC0281BCD
:10397000390B24303105D8F58A819B816115710599
:1039800089F1FB0193838283FE0111C04081518143
:103990000281138148175907E0F04817590799F435
:1039A000109761F012960C93129713961C9332960F
:1039B000CF01DF91CF911F910F910895009366057C
:1039C00010936705F4CF2115310551F042175307C5
:1039D00038F0A901DB019A01BD01DF01F801C1CF77
:1039E000EF01F9CF9093670580936605CDCFFE0177
:1039F000E20FF31F81939193225031093983288379
:103A0000D7CF2091640530916505232B41F4209197
:103A100008013091090130936505209364052091D8
:103A20000601309107012115310541F42DB73EB74C
:103A300040910A0150910B01241B350BE091640564
:103A4000F0916505E217F307A0F42E1B3F0B281732
:103A5000390778F0AC014E5F5F4F2417350748F007
:103A60004E0F5F1F509365054093640581939193BA
:103A70009FCFF0E0E0E09CCFCF93DF930097E9F099
:103A8000FC01329713821282A0916605B0916705FE
:103A9000ED0130E020E01097A1F420813181820F08
:103AA000931F20916405309165052817390709F0A7
:103AB00061C0F0936505E0936405DF91CF910895AF
:103AC000EA01CE17DF07E8F54A815B819E014115C7
:103AD0005105B1F7E901FB83EA8349915991C40F7C
:103AE000D51FEC17FD0761F4808191810296840F48
:103AF000951FE90199838883828193819B838A83BF
:103B0000F0E0E0E012968D919C9113970097B9F543
:103B10002D913C911197CD010296820F931F209118
:103B20006405309165052817390739F6309751F546
:103B30001092670510926605B0936505A093640521
:103B4000BCCFD383C28340815181840F951FC81796
:103B5000D90761F44E5F5F4F88819981480F591FE3
:103B6000518340838A819B81938382832115310510
:103B700009F0B0CFF0936705E09366059ECFFD0195
:103B8000DC01C0CF13821282D7CFB0E0A0E0EBEC13
:103B9000FDE10C942B1B8C01009751F4CB010E948A
:103BA000A01C8C01C801CDB7DEB7E0E10C94471B27
:103BB000FC01E60FF71F9C0122503109E217F307C1
:103BC00008F49DC0D901CD91DC911197C617D70794
:103BD00098F0C530D10530F3CE01049786179707CA
:103BE00008F3C61BD70B2297C193D1936D937C9397
:103BF000CF010E943C1DD6CF5B01AC1ABD0A4C011F
:103C00008C0E9D1EA0916605B0916705512C412C2C
:103C1000F12CE12C109731F58091640590916505A8
:103C20008815990509F05CC04616570608F058C07B
:103C30008091060190910701009741F48DB79EB7DE
:103C400040910A0150910B01841B950BE817F9076D
:103C500008F055C0F0936505E0936405F9017183A0
:103C60006083A0CF8D919C91119712966C901297C2
:103C700013967C901397A815B90559F56C0142E08D
:103C8000C40ED11CCA14DB0420F1AC014A195B0933
:103C9000DA011296159780F0628273825183408315
:103CA000D9016D937C93E114F10471F0D70113965F
:103CB000FC93EE93129776CF22968C0F9D1FF901FD
:103CC00091838083F301EFCFF0936705E09366055E
:103CD00069CF4816590608F42C017D01D3019ACF0B
:103CE000CB010E94A01C7C01009749F0AE01B801F5
:103CF0000E94821EC8010E943C1D870153CF10E024
:103D000000E050CFFB01DC0102C001900D92415058
:103D10005040D8F70895FB01DC018D910190801986
:103D20000110D9F3990B0895FB01DC0101900D926C
:103D30000020E1F7089512E0CAEBD2E004C0FE01D2
:103D40000E949A1C2196CB3BD107C9F7F894FFCF6C
:103D5000643C0012130F000068058000300100B7BA
:103D6000DF0300300100CCF00100300400C300008C
:103D70000004D00FD700000009AC03C300000031DD
:103D80003100C300000033A544C300000034872B7A
:103D9000C3000000410F47C300000044FF0FD700DD
:103DA000000047FF7FC30000004F622CC3000000EB
:103DB000539400C3000000558100C3000000562248
:103DC0000BC300000057001CD70000005ADB0EC7D1
:103DD000000000601E10C700000063AD16DB00008D
:103DE0000030A4405B66010030A640F15402003070
:103DF00006404C48000015001FC3000000326475E7
:103E0000D70000003AC344C40000003C2C17C30094
:103E100000003FD229C3000000484121C300000038
:103E200059500AC3000000624623C3000000658A9F
:103E300024D7000000662EFFC30000007F0100C3EE
:103E4000000000062400C3000000071402C30000A5
:103E500000082402C3000000091403D70000000A70
:103E60002403C30000000B4403C30000000C8403C0
:103E7000C30000000D8413C30000000E841BC300A8
:103E800000000F843FD700000012EBE0C3000000E9
:103E90007F0000C3000000054385C8540200672866
:103EA00006D700000068E505C3000000695505C39A
:103EB0000000006AB804C30000006BFE02C30000EB
:103EC000006CDD01C30000006DB100D70000006E82
:103ED000810FC30000006F7A01C3000000704C0026
:103EE000C3000000711C0FC300000072910DC300DD
:103EF0000000733E0AD7000000740E09C3000000E2
:103F0000753308C3000000760608C30000007A1865
:103F100080C30000001F5555C40000003CFE3FD781
:103F2000000000580584C6000000444009C300009A
:103F3000004A7C33D20000003AC340D2000000297E
:103F40002300D60000002A80C5C3000000300670A0
:103F50005B3C000049180DC6000000303E70CA00EE
:103F600000000A207ADA000000411A47C60000006B
:103F700064C522C60000005B12090000000016158F
:103F800013120D0C0C0C0B0B0A0A0A0A0909090979
:103F900008080808070707070607060606060506B5
:103FA00005060505040504050404040403040304CC
:103FB00003040405030403040304030403040004CA
:103FC00002030203020302030203000300030003CF
:103FD00088137C152C1A121B161C101D141E221F70
:103FE0003A205C219222BE2308250C2610276E2839
:103FF000E029522BD82C682E0C30BA317C33523544
:1040000032371C39243B363D5C3F9641E4434646FB
:10401000BC48504B7E4F4E5232552A58405B745E1E
:10402000C6614634312E2B2825221F1C1916131069
:104030000D0A643A3734312E2B2825221F1C1916FD
:10404000131000000000D704050432043F05950456
:10405000410487040D0A002C006E616E00696E66D3
:10406000006F766600312E352E3133003235204B0D
:10407000487A0031322E35204B487A0041542B4B80
:104080003448383138434F4E4E45435400434F4D2A
:104090004D4F4B0041542B4B344838313852535319
:0240A0004900D5
:00000001FF
